:020000040000FA
:0600000074EF02F0120093
:020006001200E6
:060008000EEF00F01200F3
:02000E000100EF
:0C001000040500008D0000000C00000042
:04001C00DACFE4FF54
:10002000E2CFDAFFE9CFE4FFEACFE4FFF6CFE4FF67
:10003000F7CFE4FFF5CFE4FFF3CFE4FFF4CFE4FF25
:10004000FACFE4FF00EE00F0020EE80403E3EECF87
:10005000E4FFFBD700EE02F0020EE80403E3EECF6C
:10006000E4FFFBD7E652F29E9EAA0ED0AECF8AF0F6
:100070009E9A9EAAFED7AECF8BF09E9A9EAAFED7DE
:10008000AECF8CF0BDD99E9A9EA800D0F28EE552DC
:1000900000EE03F0020EE80403E3E5CFEDFFFBD72B
:1000A00000EE01F0020EE80403E3E5CFEDFFFBD71D
:1000B000E5CFFAFFE5CFF4FFE5CFF3FFE5CFF5FF9E
:1000C000E5CFF7FFE5CFF6FFE5CFEAFFE5CFE9FFA4
:1000D000E5CFDAFF11006DD8010EE66EE66E8AD824
:1000E000E552E55259D8C80EE66EE66E9CD8E55248
:1000F000E552E80EE66E030EE66E26D8E552E552AE
:100100008FD80A0EE66EE66A1FD8E552E552C80E91
:10011000E66EE66E9DD8E552E552E80EE66E030EF9
:10012000E66E12D8E552E5520001140E8A6FC80E31
:100130008B6F8C6F65D9900EE66E010EE66E04D85B
:10014000E552E552FFD71200D9CFE6FFE1CFD9FF44
:100150000001806B816BFD0EDBCF02F0FE0EDBCF6A
:1001600003F08051025C8151035812E30001976B48
:10017000986B900ED8809755010E985504E3972BF5
:10018000000E9823F6D70001802B000E8123E3D7C1
:10019000E552E7CFD9FF1200400EAF6E948E949CCB
:1001A000AC84AB8EAB88F28EF28C9D8A9E9A9E9820
:1001B0001200D190BD6ABA6AFA0ECB6E010ECA6EF9
:1001C00094949492956A1200D9CFE6FFE1CFD9FFBB
:1001D000FE0EDB50BE6EFD0EDB5000019625BB6EA1
:1001E000FE0EDBCF84F0FD0EDBCF85F0E552E7CFCE
:1001F000D9FF1200D9CFE6FFE1CFD9FFFE0EDB50C9
:1002000002E083828390FD0EDB5002E083868394BC
:100210000C0EBD6EBA6ECA84E552E7CFD9FF12004C
:10022000838083841200D9CFE6FFE1CFD9FF838298
:10023000838683908394FD0EDBCFE6FFFE0EDBCF3B
:10024000E6FFC2DFE552E552E552E7CFD9FF1200E3
:10025000D9CFE6FFE1CFD9FF839083948392839631
:10026000FD0EDBCFE6FFFE0EDBCFE6FFADDFE55296
:10027000E552E552E7CFD9FF1200D9CFE6FFE1CF33
:10028000D9FF8380839483828386FE0EDBCFE6FFD3
:10029000E66A9ADFE552E552E552E7CFD9FF120050
:1002A000D9CFE6FFE1CFD9FF839083848382838611
:1002B000E66AFE0EDBCFE6FF87DFE552E552E55248
:1002C000E7CFD9FF1200D9CFE6FFE1CFD9FF839066
:1002D000839483828386FD0EDBCF86F0DBCFE6FF3F
:1002E000FE0EDB50E552E724E66EFE0EDBCFE6FFA6
:1002F0006BDFE552E552E552E7CFD9FF1200D9CFC7
:10030000E6FFE1CFD9FF8390839483828386FD0E3D
:10031000DBCF87F0FE0EDBCFE6FFFD0EDBCFE6FF87
:10032000FE0EDB50E552E724E66E4EDFE552E55265
:10033000E552E7CFD9FF1200D9CFE6FFE1CFD9FFD1
:10034000FE0EDB0409E1FC0EDBCFE6FFFD0EDBCF8A
:10035000E6FF50DFE552E552FE0EDB50020801E1F8
:100360005FDFFE0EDB50030801E146D0FE0EDB50DE
:10037000040809E1FC0EDBCFE6FFFD0EDBCFE6FF54
:1003800052DFE552E552FE0EDB50050809E1FC0E96
:10039000DBCFE6FFFD0EDBCFE6FF5ADFE552E5528D
:1003A000FE0EDB50060805E1FD0EDBCFE6FF65DF44
:1003B000E552FE0EDB50070805E1FD0EDBCFE6FF40
:1003C0006FDFE552FE0EDB50080809E1FC0EDBCFC3
:1003D000E6FFFD0EDBCFE6FF76DFE552E552FE0ECF
:1003E000DB50090809E1FC0EDBCFE6FFFD0EDBCF99
:1003F000E6FF85DFE552E552E552E7CFD9FF12006F
:100400000F0E00018A15896FF00E8A15886F100E85
:10041000885D0AE18CC0E6FF8BC0E6FF89C0E6FF7D
:0A0420008BDFE552E552E5521200B1
:06042A000E0EF66E000E3E
:10043000F76E000EF86E00010900F5509E6F09007E
:10044000F5509F6F03E19E6701D03DD00900F55044
:10045000996F0900F5509A6F0900F5509B6F0900DC
:100460000900F550E96E0900F550EA6E090009002F
:100470000900F5509C6F0900F5509D6F09000900B7
:10048000F6CFA0F0F7CFA1F0F8CFA2F099C0F6FF19
:100490009AC0F7FF9BC0F8FF00019C5302E19D53F7
:1004A00007E00900F550EE6E9C07F8E29D07F9D7CA
:1004B000A0C0F6FFA1C0F7FFA2C0F8FF00019E0791
:0804C000000E9F5BBFD7120084
:0804C800000EF36E00EE00F0DF
:1004D000060E01D81200EA6002D0EE6AFCD7F35093
:0804E000E9601200EE6AFCD78E
:0804E80015EE00F025EE00F016
:1004F000F86A019C15EC02F003EC00F06BEC00F0E4
:04050000FBD7120013
:0C0504000102030405060708091E0000A0
:00000001FF
